:100000000C947F000C94A7000C94A7000C94A700FC
:100010000C94A7000C94A7000C94A7000C94A700C4
:100020000C94A7000C94A7000C94A7000C94A700B4
:100030000C94A7000C94A7000C94A7000C94A700A4
:100040000C9473050C94A7000C9441050C941B05AB
:100050000C94A7000C94A7000C94A7000C94A70084
:100060000C94A7000C94A7000000000024002700B7
:100070002A0044617461204C6F6767657220557374
:10008000696E6720444854313121004661696C65CE
:100090006420746F20726561642066726F6D204405
:1000A00048542073656E736F7221000000000025B4
:1000B0000028002B000000000800020100000304DB
:1000C00007000000000000000000000000230026E0
:1000D00000290004040404040404040202020202CD
:1000E00002030303030303010204081020408001FC
:1000F000020408102001020408102000BD0511248C
:100100001FBECFEFD8E0DEBFCDBF11E0A0E0B1E071
:10011000E2E1F4E102C005900D92A232B107D9F7F5
:1001200021E0A2E2B1E001C01D92AB3DB207E1F7D0
:1001300010E0CFE7D0E004C02197FE010E94010A41
:10014000CE37D107C9F70E940A060C94070A0C940F
:100150000000CF92DF92EF92FF92CF93DF93B091A6
:10016000CF01A0E08111AB2F8091D00190E0880FEA
:10017000991FAC0147535F4FC090D501D090D60175
:10018000E090D701F090D80130E020E0FA01C5916D
:10019000D491E881B90190E080E0EB23EA130AC032
:1001A0002F5F3F4F6C157D058E059F0578F36FEF30
:1001B0007FEFCB01DF91CF91FF90EF90DF90CF9059
:1001C0000895AF92BF92CF92DF92EF92FF920F937A
:1001D0001F93CF93DF936C017B018B01040F151FDD
:1001E000EB015E01AE18BF08C017D10759F0699145
:1001F000D601ED91FC910190F081E02DC6010995A9
:10020000892B79F7C501DF91CF911F910F91FF9055
:10021000EF90DF90CF90BF90AF900895FC01538D89
:10022000448D252F30E0842F90E0821B930B5417D0
:1002300010F0CF96089501970895FC01918D828D5D
:10024000981761F0A28DAE0FBF2FB11D5D968C91F6
:10025000928D9F5F9F73928F90E008958FEF9FEF35
:100260000895FC01918D828D981731F0828DE80FF1
:10027000F11D858D90E008958FEF9FEF0895FC01AB
:10028000918D228D892F90E0805C9F4F821B910978
:100290008F73992708958BE291E00E943F0121E03E
:1002A000892B09F420E0822F089580E090E0892BCB
:1002B00029F00E944B0181110C9400000895FC016B
:1002C000A48DA80FB92FB11DA35ABF4F2C91848DB7
:1002D00090E001968F739927848FA689B7892C9314
:1002E000A089B1898C91837080648C93938D848D67
:1002F000981306C00288F389E02D80818F7D80836A
:100300000895EF92FF920F931F93CF93DF93EC0129
:1003100081E0888F9B8D8C8D98131AC0E889F989AC
:10032000808185FF15C09FB7F894EE89FF896083AF
:10033000E889F98980818370806480839FBF81E030
:1003400090E0DF91CF911F910F91FF90EF90089572
:10035000F62E0B8D10E00F5F1F4F0F731127E02E4D
:100360008C8D8E110CC00FB607FCFACFE889F98985
:10037000808185FFF5CFCE010E945F01F1CFEB8D2B
:10038000EC0FFD2FF11DE35AFF4FF0829FB7F89459
:100390000B8FEA89FB8980818062CFCF0F931F93F7
:1003A000CF93DF938C01D0E0C0E0F801EC0FFD1F8C
:1003B0006491662341F08BE291E00E948101892BD8
:1003C00011F02196F2CFCE01DF91CF911F910F91C5
:1003D0000895CF93DF93EC01888D8823B9F0AA8923
:1003E000BB89E889F9898C9185FD03C0808186FDF0
:1003F0000DC00FB607FCF7CF8C9185FFF2CF80813F
:1004000085FFEDCFCE010E945F01E9CFDF91CF9153
:100410000895CF93DF9390E0FC01E951FF4F2491C1
:100420008D529F4FFC0184918823D1F090E0880F7A
:10043000991FFC01E859FF4FA591B491FC01E555C6
:10044000FF4FC591D491623071F49FB7F8943C91FD
:10045000822F809583238C93E8812E2B28839FBF46
:10046000DF91CF9108958FB7F894EC912E2B2C93B8
:100470008FBFF6CF3FB7F89480912301909124016C
:10048000A0912501B091260126B5A89B05C02F3F5C
:1004900019F00196A11DB11D3FBFBA2FA92F982FAA
:1004A0008827BC01CD01620F711D811D911D42E0A5
:1004B000660F771F881F991F4A95D1F708958F926D
:1004C0009F92AF92BF92CF92DF92EF92FF924B0139
:1004D0005C010E943A026B017C010E943A026C1995
:1004E0007D098E099F09683E734081059105A8F337
:1004F00021E0821A9108A108B10888EEC80E83E0B5
:10050000D81EE11CF11C81149104A104B10429F747
:10051000FF90EF90DF90CF90BF90AF909F908F9023
:1005200008958F929F92AF92BF92EF92FF920F9396
:100530001F93CF93DF93CDB7DEB7C054D1400FB632
:10054000F894DEBF0FBECDBF2FB7F894809127017E
:1005500090912801A0912901B0912A012FBF4091CB
:10056000D1015091D2016091D3017091D4018C01DD
:100570009D01041B150B260B370BB901A801403D4B
:10058000574061057105A0F48091D901C05CDE4F30
:100590000FB6F894DEBF0FBECDBFDF91CF911F9194
:1005A0000F91FF90EF90BF90AF909F908F90089524
:1005B0008093D1019093D201A093D301B093D40141
:1005C0001092CC011092CB011092CA011092C90175
:1005D0001092C80162E08091CD010E94090261E0A1
:1005E00070E080E090E00E945F0261E08091CD01C8
:1005F0000E9409028091CD0190E0FC01EB54FF4F75
:100600002491FC01E951FF4F3491FC01ED52FF4F61
:10061000E491EE23D9F0222359F0233009F44BC0A2
:1006200008F03EC0213009F44CC0223009F44DC01E
:10063000F0E0EE0FFF1FE555FF4FA591B4918FB786
:10064000F894EC9130953E233C938FBF8091CE017E
:100650008551823008F046C08BE291E10197F1F7B5
:1006600062E08091CD010E9409028091DA0190E060
:100670008230910538F0880F991F880F991F0597D0
:100680000197F1F7F89480E00E94A9006F3F7F4F37
:100690008F4F9F4F71F51092D901789480E076CFFB
:1006A0002730B1F02830D1F0243009F0C1CF80914B
:1006B00080008F7D03C0809180008F7780938000C1
:1006C000B7CF84B58F7784BDB3CF84B58F7DFBCF93
:1006D0008091B0008F778093B000AACF8091B00056
:1006E0008F7DF9CF64E170E080E090E00E945F02CE
:1006F000B7CF81E00E94A9006F3F7F4F8F4F9F4F80
:1007000051F2CE0101967C015E019FEBA91A9EEF8A
:10071000B90A870180E00E94A900F8016083718313
:100720008283938381E00E94A900F801648375832A
:1007300086839783085F1F4FA016B10659F77894F8
:1007400030E020E0F70180809180A280B380448176
:10075000558166817781FFEF8F169F06AF06BF0632
:1007600031F04F3F0FEF50076007700719F41092F8
:10077000D90194CFF90183E0F595E7958A95E1F7E2
:10078000E853FE4F8081880F84169506A606B706AB
:1007900018F180832F5F3F4F18E0E10EF11C2832E3
:1007A000310581F64091CC012091C8018091C901A9
:1007B000280F3327331F8091CA01280F311D8091E4
:1007C000CB01820F932F911D99274817190679F6AF
:1007D00081E08093D901DACE8160DBCFFC0101900A
:1007E0000020E9F73197AF01481B590BBC018BE2A0
:1007F00091E00C94E1008F929F92AF92BF920F9381
:100800001F93CF93DF93CDB7DEB7A1970FB6F894C0
:10081000DEBF0FBECDBF19A2423008F44AE08E0100
:100820000F5D1F4F842E912CB12CA12CA50194019A
:100830000E94DF09E62FB901CA01EA30F4F4E05D55
:10084000D801EE938D01232B242B252B79F790E0F3
:1008500080E0109719F0CD010E94EE03A1960FB62B
:10086000F894DEBF0FBECDBFDF91CF911F910F91E6
:10087000BF90AF909F908F900895E95CE1CF4F9229
:100880005F926F927F928F929F92AF92BF92CF9220
:10089000DF92EF92FF920F931F93CF936B017C0136
:1008A000742EAC019B010E94DA09882399F082E141
:1008B00091E0CF911F910F91FF90EF90DF90CF903B
:1008C000BF90AF909F908F907F906F905F904F9070
:1008D0000C94EE0346015701E894B7F82FEF3FEF71
:1008E0004FE75FE7C501B4010E94DA0981110DC02D
:1008F0002FEF3FEF4FE75FE7C501B4010E941008FB
:1009000018161CF486E191E0D4CF2FEF3FEF4FE7AC
:100910005FE4C701B6010E94680918161CF48AE159
:1009200091E0C7CF2FEF3FEF4FE75FECC701B60174
:100930000E94100887FDF3CF20E030E0A901C70135
:10094000B6010E94100810E000E087FF0AC06DE2C7
:100950008BE291E00E9481018C01F7FAF094F7F8A4
:10096000F094C0E060E070E080E09FE37C1641F02E
:1009700020E030E040E251E40E941508CF5FF6CF5E
:10098000A70196010E94A4072B013C010E94870841
:100990004B015C014AE00E94FB037C01E00EF11E6A
:1009A000CC23C1F1C501B4010E94B6089B01AC0182
:1009B000C301B2010E94A3074B015C016EE28BE20E
:1009C00091E00E948101E80EF91EC15018F120E06B
:1009D00030E040E251E4C501B4010E946D092B01F1
:1009E0003C010E9487084B01B12CA12C4AE0C501B3
:1009F000B4010E94FB03E80EF91EC501B4010E9478
:100A0000B6089B01AC01C301B2010E94A3074B01D0
:100A10005C01DBCFC701CF911F910F91FF90EF9049
:100A2000DF90CF90BF90AF909F908F907F906F900E
:100A30005F904F9008951F920F920FB60F9211245E
:100A40002F933F934F935F936F937F938F939F93D6
:100A5000AF93BF93EF93FF938BE291E00E945F010E
:100A6000FF91EF91BF91AF919F918F917F916F9186
:100A70005F914F913F912F910F900FBE0F901F905C
:100A800018951F920F920FB60F9211242F938F93E8
:100A90009F93EF93FF93E0913B01F0913C018081A4
:100AA000E0914101F091420182FD1BC09081809153
:100AB00044018F5F8F7320914501821741F0E091CF
:100AC0004401F0E0E55DFE4F958F80934401FF9176
:100AD000EF919F918F912F910F900FBE0F901F90CC
:100AE00018958081F4CF1F920F920FB60F921124A8
:100AF0002F933F938F939F93AF93BF938091270141
:100B000090912801A0912901B0912A0130912201F0
:100B100023E0230F2D3758F50196A11DB11D209319
:100B200022018093270190932801A0932901B0937B
:100B30002A018091230190912401A0912501B09177
:100B400026010196A11DB11D8093230190932401DC
:100B5000A0932501B0932601BF91AF919F918F91F2
:100B60003F912F910F900FBE0F901F90189526E880
:100B7000230F0296A11DB11DD2CFEBE2F1E013824B
:100B8000128288EE93E0A0E0B0E084839583A68390
:100B9000B78384E091E09183808385EC90E0958732
:100BA000848784EC90E09787868780EC90E0918B37
:100BB000808B81EC90E0938B828B82EC90E0958B24
:100BC000848B86EC90E0978B868B118E128E138E21
:100BD000148EA8ECB1E082E015968C9315978BE00B
:100BE00016968C931697E9EEF0E0E4911796EC9345
:100BF0001797E5EDF0E0E4911896EC93189740E82C
:100C00005EE360E070E01D964D935D936D937C9381
:100C100050970895789484B5826084BD84B58160CE
:100C200084BD85B5826085BD85B5816085BD8091B7
:100C30006E00816080936E0010928100809181002F
:100C40008260809381008091810081608093810027
:100C5000809180008160809380008091B1008460E9
:100C60008093B1008091B00081608093B00080914A
:100C70007A00846080937A0080917A008260809309
:100C80007A0080917A00816080937A0080917A0066
:100C9000806880937A001092C100E0913B01F0914E
:100CA0003C0182E08083E0913701F09138011082AD
:100CB000E0913901F0913A018FEC80831092430169
:100CC000E0913F01F091400186E08083E0913D0199
:100CD000F0913E01808180618083E0913D01F0913F
:100CE0003E01808188608083E0913D01F0913E016A
:100CF000808180688083E0913D01F0913E01808198
:100D00008F7D808382E790E00E94CE018EE191E0AA
:100D10000E94EE0362E08091CD010E9409022FB78C
:100D2000F8948091270190912801A0912901B09118
:100D30002A012FBF805D9740A109B1098093D1019D
:100D40009093D201A093D301B093D40187E3809311
:100D5000DA01C0E0D0E064EF71E080E090E00E9452
:100D60005F020E949102882349F08091CE018B306E
:100D700028F08D3050F085518230C8F1812C912CB3
:100D800020ECA22E2FE7B22E1EC06091C90170E0A8
:100D900090E080E00E94B8082DEC3CEC4CEC5DE368
:100DA0000E946D096B017C016091C80170E090E0C8
:100DB00080E00E94B8089B01AC01C701B6010E9407
:100DC000A4074B015C010E949102882309F474C0BE
:100DD0008091CE018C3009F482C0D8F48B3091F12F
:100DE000C12CD12C80ECE82E8FE7F82E55C06091F5
:100DF000C8017091C90176276727762790E080E0C7
:100E00000E94B6082DEC3CEC4CEC5DE30E946D09B1
:100E1000D8CF8551823020F71091CA01612F70E040
:100E2000762F662766277F778091CB01682B90E02D
:100E300080E00E94B6082DEC3CEC4CEC5DE30E9497
:100E40006D0969C06091CA0170E090E080E00E9485
:100E5000B6086B017C011091CB0117FF0AC0AC01F1
:100E60009B0160E070E080E89FEB0E94A3076B01AC
:100E70007C011F70612F70E090E080E00E94B80854
:100E80002DEC3CEC4CEC5DE30E946D09A701960152
:100E90000E94A4076B017C01A5019401C501B40166
:100EA0000E94DA09811108C0A7019601C701B601A5
:100EB0000E94DA098823C1F18BE890E00E94CE01FC
:100EC0008EE191E00E94EE03209709F444CF0E9446
:100ED0004B01882309F43FCF0E9400003CCF1091C2
:100EE000CA01612F70E090E080E00E94B6086B01BB
:100EF0007C016091CB016F7070E090E080E00E9417
:100F0000B8082DEC3CEC4CEC5DE30E946D09A701A8
:100F100096010E94A4076B017C0117FFBDCFF7FA71
:100F2000F094F7F8F094B8CF42E0C701B6010E9400
:100F30003F048EE191E00E94EE0342E0C501B4015E
:100F40000E943F04BDCF5058BB27AA270E94BB0771
:100F50000C942E090E94200938F00E94270920F0E5
:100F600039F49F3F19F426F40C941D090EF4E09512
:100F7000E7FB0C941709E92F0E943F0958F3BA17B1
:100F8000620773078407950720F079F4A6F50C949F
:100F900061090EF4E0950B2EBA2FA02D0B01B901BB
:100FA00090010C01CA01A0011124FF27591B99F0DF
:100FB000593F50F4503E68F11A16F040A22F232FEB
:100FC000342F4427585FF3CF469537952795A7953B
:100FD000F0405395C9F77EF41F16BA0B620B730BE2
:100FE000840BBAF09150A1F0FF0FBB1F661F771F53
:100FF000881FC2F70EC0BA0F621F731F841F48F408
:10100000879577956795B795F7959E3F08F0B0CF90
:101010009395880F08F09927EE0F97958795089577
:101020000E94F30808F481E008950E9429080C94B6
:101030002E090E94270958F00E94200940F029F447
:101040005F3F29F00C94170951110C9462090C941C
:101050001D090E943F0968F39923B1F3552391F3C9
:10106000951B550BBB27AA2762177307840738F017
:101070009F5F5F4F220F331F441FAA1FA9F335D074
:101080000E2E3AF0E0E832D091505040E695001C28
:10109000CAF72BD0FE2F29D0660F771F881FBB1FE2
:1010A000261737074807AB07B0E809F0BB0B802DC0
:1010B000BF01FF2793585F4F3AF09E3F510578F0EC
:1010C0000C9417090C9462095F3FE4F3983ED4F343
:1010D000869577956795B795F7959F5FC9F7880FC0
:1010E000911D9695879597F90895E1E0660F771F12
:1010F000881FBB1F621773078407BA0720F0621BA3
:10110000730B840BBA0BEE1F88F7E09508950E94CD
:10111000470988F09F5798F0B92F9927B751B0F039
:10112000E1F0660F771F881F991F1AF0BA95C9F76B
:1011300014C0B13091F00E946109B1E008950C949F
:101140006109672F782F8827B85F39F0B93FCCF352
:10115000869577956795B395D9F73EF490958095E8
:10116000709561957F4F8F4F9F4F0895E89409C008
:1011700097FB3EF490958095709561957F4F8F4FCA
:101180009F4F9923A9F0F92F96E9BB279395F695E0
:10119000879577956795B795F111F8CFFAF4BB0F5E
:1011A00011F460FF1BC06F5F7F4F8F4F9F4F16C0C2
:1011B000882311F096E911C0772321F09EE8872F4C
:1011C000762F05C0662371F096E8862F70E060E008
:1011D0002AF09A95660F771F881FDAF7880F969581
:1011E000879597F90895990F0008550FAA0BE0E825
:1011F000FEEF16161706E807F907C0F012161306D9
:10120000E407F50798F0621B730B840B950B39F418
:101210000A2661F0232B242B252B21F408950A267E
:1012200009F4A140A6958FEF811D811D089597F9BE
:101230009F6780E870E060E008959FEF80EC08957C
:1012400000240A94161617061806090608950024A5
:101250000A9412161306140605060895092E03941F
:10126000000C11F4882352F0BB0F40F4BF2B11F493
:1012700060FF04C06F5F7F4F8F4F9F4F089557FDF2
:101280009058440F551F59F05F3F71F04795880FF4
:1012900097FB991F61F09F3F79F08795089512168B
:1012A00013061406551FF2CF4695F1DF08C0161637
:1012B00017061806991FF1CF8695710561050894E8
:1012C0000895E894BB2766277727CB0197F90895FF
:1012D0000E94F30808F48FEF08950E9480090C948F
:1012E0002E090E94200938F00E94270920F095233A
:1012F00011F00C9417090C941D0911240C94620927
:101300000E943F0970F3959FC1F3950F50E0551F60
:10131000629FF001729FBB27F00DB11D639FAA274A
:10132000F00DB11DAA1F649F6627B00DA11D661F99
:10133000829F2227B00DA11D621F739FB00DA11DBA
:10134000621F839FA00D611D221F749F3327A00D74
:10135000611D231F849F600D211D822F762F6A2F10
:1013600011249F5750409AF0F1F088234AF0EE0F75
:10137000FF1FBB1F661F771F881F91505040A9F7A2
:101380009E3F510580F00C9417090C9462095F3F51
:10139000E4F3983ED4F3869577956795B795F795DE
:1013A000E7959F5FC1F7FE2B880F911D9695879556
:1013B00097F908950E94F308880B990B0895A1E20C
:1013C0001A2EAA1BBB1BFD010DC0AA1FBB1FEE1FBF
:1013D000FF1FA217B307E407F50720F0A21BB30B0A
:1013E000E40BF50B661F771F881F991F1A9469F786
:1013F00060957095809590959B01AC01BD01CF01E2
:101400000895EE0FFF1F0590F491E02D0994F894D4
:02141000FFCF0C
:10141200000000008101E1000E01E9013F011D0110
:1014220031016E616E00696E66006F7666000D0AAC
:021432000000B8
:00000001FF
